{
  "contractName": "Web3NFT",
  "abi": [
    {
      "inputs": [],
      "stateMutability": "nonpayable",
      "type": "constructor"
    },
    {
      "anonymous": false,
      "inputs": [
        {
          "indexed": true,
          "internalType": "address",
          "name": "owner",
          "type": "address"
        },
        {
          "indexed": true,
          "internalType": "address",
          "name": "approved",
          "type": "address"
        },
        {
          "indexed": true,
          "internalType": "uint256",
          "name": "tokenId",
          "type": "uint256"
        }
      ],
      "name": "Approval",
      "type": "event"
    },
    {
      "anonymous": false,
      "inputs": [
        {
          "indexed": true,
          "internalType": "address",
          "name": "owner",
          "type": "address"
        },
        {
          "indexed": true,
          "internalType": "address",
          "name": "operator",
          "type": "address"
        },
        {
          "indexed": false,
          "internalType": "bool",
          "name": "approved",
          "type": "bool"
        }
      ],
      "name": "ApprovalForAll",
      "type": "event"
    },
    {
      "anonymous": false,
      "inputs": [
        {
          "indexed": true,
          "internalType": "address",
          "name": "previousOwner",
          "type": "address"
        },
        {
          "indexed": true,
          "internalType": "address",
          "name": "newOwner",
          "type": "address"
        }
      ],
      "name": "OwnershipTransferred",
      "type": "event"
    },
    {
      "anonymous": false,
      "inputs": [
        {
          "indexed": true,
          "internalType": "address",
          "name": "from",
          "type": "address"
        },
        {
          "indexed": true,
          "internalType": "address",
          "name": "to",
          "type": "address"
        },
        {
          "indexed": true,
          "internalType": "uint256",
          "name": "tokenId",
          "type": "uint256"
        }
      ],
      "name": "Transfer",
      "type": "event"
    },
    {
      "inputs": [
        {
          "internalType": "address",
          "name": "to",
          "type": "address"
        },
        {
          "internalType": "uint256",
          "name": "tokenId",
          "type": "uint256"
        }
      ],
      "name": "approve",
      "outputs": [],
      "stateMutability": "nonpayable",
      "type": "function"
    },
    {
      "inputs": [
        {
          "internalType": "address",
          "name": "owner",
          "type": "address"
        }
      ],
      "name": "balanceOf",
      "outputs": [
        {
          "internalType": "uint256",
          "name": "",
          "type": "uint256"
        }
      ],
      "stateMutability": "view",
      "type": "function",
      "constant": true
    },
    {
      "inputs": [
        {
          "internalType": "uint256",
          "name": "tokenId",
          "type": "uint256"
        }
      ],
      "name": "getApproved",
      "outputs": [
        {
          "internalType": "address",
          "name": "",
          "type": "address"
        }
      ],
      "stateMutability": "view",
      "type": "function",
      "constant": true
    },
    {
      "inputs": [
        {
          "internalType": "address",
          "name": "owner",
          "type": "address"
        },
        {
          "internalType": "address",
          "name": "operator",
          "type": "address"
        }
      ],
      "name": "isApprovedForAll",
      "outputs": [
        {
          "internalType": "bool",
          "name": "",
          "type": "bool"
        }
      ],
      "stateMutability": "view",
      "type": "function",
      "constant": true
    },
    {
      "inputs": [],
      "name": "name",
      "outputs": [
        {
          "internalType": "string",
          "name": "",
          "type": "string"
        }
      ],
      "stateMutability": "view",
      "type": "function",
      "constant": true
    },
    {
      "inputs": [],
      "name": "owner",
      "outputs": [
        {
          "internalType": "address",
          "name": "",
          "type": "address"
        }
      ],
      "stateMutability": "view",
      "type": "function",
      "constant": true
    },
    {
      "inputs": [
        {
          "internalType": "uint256",
          "name": "tokenId",
          "type": "uint256"
        }
      ],
      "name": "ownerOf",
      "outputs": [
        {
          "internalType": "address",
          "name": "",
          "type": "address"
        }
      ],
      "stateMutability": "view",
      "type": "function",
      "constant": true
    },
    {
      "inputs": [],
      "name": "renounceOwnership",
      "outputs": [],
      "stateMutability": "nonpayable",
      "type": "function"
    },
    {
      "inputs": [
        {
          "internalType": "address",
          "name": "from",
          "type": "address"
        },
        {
          "internalType": "address",
          "name": "to",
          "type": "address"
        },
        {
          "internalType": "uint256",
          "name": "tokenId",
          "type": "uint256"
        }
      ],
      "name": "safeTransferFrom",
      "outputs": [],
      "stateMutability": "nonpayable",
      "type": "function"
    },
    {
      "inputs": [
        {
          "internalType": "address",
          "name": "from",
          "type": "address"
        },
        {
          "internalType": "address",
          "name": "to",
          "type": "address"
        },
        {
          "internalType": "uint256",
          "name": "tokenId",
          "type": "uint256"
        },
        {
          "internalType": "bytes",
          "name": "_data",
          "type": "bytes"
        }
      ],
      "name": "safeTransferFrom",
      "outputs": [],
      "stateMutability": "nonpayable",
      "type": "function"
    },
    {
      "inputs": [
        {
          "internalType": "address",
          "name": "operator",
          "type": "address"
        },
        {
          "internalType": "bool",
          "name": "approved",
          "type": "bool"
        }
      ],
      "name": "setApprovalForAll",
      "outputs": [],
      "stateMutability": "nonpayable",
      "type": "function"
    },
    {
      "inputs": [
        {
          "internalType": "bytes4",
          "name": "interfaceId",
          "type": "bytes4"
        }
      ],
      "name": "supportsInterface",
      "outputs": [
        {
          "internalType": "bool",
          "name": "",
          "type": "bool"
        }
      ],
      "stateMutability": "view",
      "type": "function",
      "constant": true
    },
    {
      "inputs": [],
      "name": "symbol",
      "outputs": [
        {
          "internalType": "string",
          "name": "",
          "type": "string"
        }
      ],
      "stateMutability": "view",
      "type": "function",
      "constant": true
    },
    {
      "inputs": [
        {
          "internalType": "uint256",
          "name": "tokenId",
          "type": "uint256"
        }
      ],
      "name": "tokenURI",
      "outputs": [
        {
          "internalType": "string",
          "name": "",
          "type": "string"
        }
      ],
      "stateMutability": "view",
      "type": "function",
      "constant": true
    },
    {
      "inputs": [
        {
          "internalType": "address",
          "name": "from",
          "type": "address"
        },
        {
          "internalType": "address",
          "name": "to",
          "type": "address"
        },
        {
          "internalType": "uint256",
          "name": "tokenId",
          "type": "uint256"
        }
      ],
      "name": "transferFrom",
      "outputs": [],
      "stateMutability": "nonpayable",
      "type": "function"
    },
    {
      "inputs": [
        {
          "internalType": "address",
          "name": "newOwner",
          "type": "address"
        }
      ],
      "name": "transferOwnership",
      "outputs": [],
      "stateMutability": "nonpayable",
      "type": "function"
    },
    {
      "inputs": [
        {
          "internalType": "uint256",
          "name": "tokenId",
          "type": "uint256"
        }
      ],
      "name": "updateMyNFTs",
      "outputs": [],
      "stateMutability": "nonpayable",
      "type": "function"
    },
    {
      "inputs": [],
      "name": "getMyNFTs",
      "outputs": [
        {
          "internalType": "uint256[]",
          "name": "",
          "type": "uint256[]"
        }
      ],
      "stateMutability": "view",
      "type": "function",
      "constant": true
    },
    {
      "inputs": [
        {
          "internalType": "string",
          "name": "tokenURI",
          "type": "string"
        }
      ],
      "name": "createToken",
      "outputs": [
        {
          "internalType": "uint256",
          "name": "",
          "type": "uint256"
        }
      ],
      "stateMutability": "nonpayable",
      "type": "function"
    },
    {
      "inputs": [
        {
          "internalType": "address",
          "name": "friend",
          "type": "address"
        },
        {
          "internalType": "string",
          "name": "tokenURI",
          "type": "string"
        }
      ],
      "name": "mintTokenToAddress",
      "outputs": [
        {
          "internalType": "uint256",
          "name": "",
          "type": "uint256"
        }
      ],
      "stateMutability": "nonpayable",
      "type": "function"
    },
    {
      "inputs": [
        {
          "internalType": "address",
          "name": "_owner",
          "type": "address"
        }
      ],
      "name": "getTokensOfOwner",
      "outputs": [
        {
          "internalType": "uint256[]",
          "name": "",
          "type": "uint256[]"
        }
      ],
      "stateMutability": "view",
      "type": "function",
      "constant": true
    }
  ],
  "bytecode": "0x60806040523480156200001157600080fd5b506040518060400160405280600e81526020017f576562332054545420546f6b656e0000000000000000000000000000000000008152506040518060400160405280600581526020017f5745423354000000000000000000000000000000000000000000000000000000815250816000908051906020019062000096929190620001b8565b508060019080519060200190620000af929190620001b8565b505050620000e4620000cf620000ea640100000000026401000000009004565b620000f2640100000000026401000000009004565b620002cd565b600033905090565b6000600760009054906101000a900473ffffffffffffffffffffffffffffffffffffffff16905081600760006101000a81548173ffffffffffffffffffffffffffffffffffffffff021916908373ffffffffffffffffffffffffffffffffffffffff1602179055508173ffffffffffffffffffffffffffffffffffffffff168173ffffffffffffffffffffffffffffffffffffffff167f8be0079c531659141344cd1fd0a4f28419497f9722a3daafe3b4186f6b6457e060405160405180910390a35050565b828054620001c69062000268565b90600052602060002090601f016020900481019282620001ea576000855562000236565b82601f106200020557805160ff191683800117855562000236565b8280016001018555821562000236579182015b828111156200023557825182559160200191906001019062000218565b5b50905062000245919062000249565b5090565b5b80821115620002645760008160009055506001016200024a565b5090565b600060028204905060018216806200028157607f821691505b602082108114156200029857620002976200029e565b5b50919050565b7f4e487b7100000000000000000000000000000000000000000000000000000000600052602260045260246000fd5b6134b380620002dd6000396000f3fe608060405234801561001057600080fd5b5060043610610154576000357c0100000000000000000000000000000000000000000000000000000000900480636352211e116100d5578063a22cb46511610099578063a22cb4651461036b578063b88d4fde14610387578063c87b56dd146103a3578063e25f25ad146103d3578063e985e9c514610403578063f2fde38b1461043357610154565b80636352211e146102c557806370a08231146102f5578063715018a6146103255780638da5cb5b1461032f57806395d89b411461034d57610154565b806339876a891161011c57806339876a891461020f57806342842e0e1461022b57806345576f94146102475780635de6dc5514610277578063629cb2e4146102a757610154565b806301ffc9a71461015957806306fdde0314610189578063081812fc146101a7578063095ea7b3146101d757806323b872dd146101f3575b600080fd5b610173600480360381019061016e9190612341565b61044f565b6040516101809190612875565b60405180910390f35b610191610531565b60405161019e9190612890565b60405180910390f35b6101c160048036038101906101bc91906123d4565b6105c3565b6040516101ce91906127ec565b60405180910390f35b6101f160048036038101906101ec9190612305565b610648565b005b61020d600480360381019061020891906121ab565b610760565b005b610229600480360381019061022491906123d4565b6107c0565b005b610245600480360381019061024091906121ab565b610829565b005b610261600480360381019061025c9190612393565b610849565b60405161026e9190612af2565b60405180910390f35b610291600480360381019061028c9190612146565b610889565b60405161029e9190612853565b60405180910390f35b6102af610a5b565b6040516102bc9190612853565b60405180910390f35b6102df60048036038101906102da91906123d4565b610af0565b6040516102ec91906127ec565b60405180910390f35b61030f600480360381019061030a9190612146565b610ba2565b60405161031c9190612af2565b60405180910390f35b61032d610c5a565b005b610337610ce2565b60405161034491906127ec565b60405180910390f35b610355610d0c565b6040516103629190612890565b60405180910390f35b61038560048036038101906103809190612275565b610d9e565b005b6103a1600480360381019061039c91906121fa565b610f1f565b005b6103bd60048036038101906103b891906123d4565b610f81565b6040516103ca9190612890565b60405180910390f35b6103ed60048036038101906103e891906122b1565b6110d3565b6040516103fa9190612af2565b60405180910390f35b61041d6004803603810190610418919061216f565b611114565b60405161042a9190612875565b60405180910390f35b61044d60048036038101906104489190612146565b6111a8565b005b60007f80ac58cd000000000000000000000000000000000000000000000000000000007bffffffffffffffffffffffffffffffffffffffffffffffffffffffff1916827bffffffffffffffffffffffffffffffffffffffffffffffffffffffff1916148061051a57507f5b5e139f000000000000000000000000000000000000000000000000000000007bffffffffffffffffffffffffffffffffffffffffffffffffffffffff1916827bffffffffffffffffffffffffffffffffffffffffffffffffffffffff1916145b8061052a5750610529826112a0565b5b9050919050565b60606000805461054090612d81565b80601f016020809104026020016040519081016040528092919081815260200182805461056c90612d81565b80156105b95780601f1061058e576101008083540402835291602001916105b9565b820191906000526020600020905b81548152906001019060200180831161059c57829003601f168201915b5050505050905090565b60006105ce8261130a565b61060d576040517f08c379a000000000000000000000000000000000000000000000000000000000815260040161060490612a32565b60405180910390fd5b6004600083815260200190815260200160002060009054906101000a900473ffffffffffffffffffffffffffffffffffffffff169050919050565b600061065382610af0565b90508073ffffffffffffffffffffffffffffffffffffffff168373ffffffffffffffffffffffffffffffffffffffff1614156106c4576040517f08c379a00000000000000000000000000000000000000000000000000000000081526004016106bb90612ab2565b60405180910390fd5b8073ffffffffffffffffffffffffffffffffffffffff166106e3611376565b73ffffffffffffffffffffffffffffffffffffffff16148061071257506107118161070c611376565b611114565b5b610751576040517f08c379a000000000000000000000000000000000000000000000000000000000815260040161074890612972565b60405180910390fd5b61075b838361137e565b505050565b61077161076b611376565b82611437565b6107b0576040517f08c379a00000000000000000000000000000000000000000000000000000000081526004016107a790612ad2565b60405180910390fd5b6107bb838383611515565b505050565b600960003373ffffffffffffffffffffffffffffffffffffffff1673ffffffffffffffffffffffffffffffffffffffff16815260200190815260200160002081908060018154018082558091505060019003906000526020600020016000909190919091505550565b61084483838360405180602001604052806000815250610f1f565b505050565b60006108556008611771565b60006108616008611787565b905061086d3382611795565b6108778184611963565b610880816107c0565b80915050919050565b6060600061089683610ba2565b9050600081141561091957600067ffffffffffffffff8111156108e2577f4e487b7100000000000000000000000000000000000000000000000000000000600052604160045260246000fd5b6040519080825280602002602001820160405280156109105781602001602082028036833780820191505090505b50915050610a56565b60008167ffffffffffffffff81111561095b577f4e487b7100000000000000000000000000000000000000000000000000000000600052604160045260246000fd5b6040519080825280602002602001820160405280156109895781602001602082028036833780820191505090505b50905060006109986008611787565b9050600080600190505b828111610a4d578673ffffffffffffffffffffffffffffffffffffffff166109c982610af0565b73ffffffffffffffffffffffffffffffffffffffff161415610a3a5780848381518110610a1f577f4e487b7100000000000000000000000000000000000000000000000000000000600052603260045260246000fd5b6020026020010181815250508180610a3690612de4565b9250505b8080610a4590612de4565b9150506109a2565b50829450505050505b919050565b6060600960003373ffffffffffffffffffffffffffffffffffffffff1673ffffffffffffffffffffffffffffffffffffffff168152602001908152602001600020805480602002602001604051908101604052809291908181526020018280548015610ae657602002820191906000526020600020905b815481526020019060010190808311610ad2575b5050505050905090565b6000806002600084815260200190815260200160002060009054906101000a900473ffffffffffffffffffffffffffffffffffffffff169050600073ffffffffffffffffffffffffffffffffffffffff168173ffffffffffffffffffffffffffffffffffffffff161415610b99576040517f08c379a0000000000000000000000000000000000000000000000000000000008152600401610b90906129b2565b60405180910390fd5b80915050919050565b60008073ffffffffffffffffffffffffffffffffffffffff168273ffffffffffffffffffffffffffffffffffffffff161415610c13576040517f08c379a0000000000000000000000000000000000000000000000000000000008152600401610c0a90612992565b60405180910390fd5b600360008373ffffffffffffffffffffffffffffffffffffffff1673ffffffffffffffffffffffffffffffffffffffff168152602001908152602001600020549050919050565b610c62611376565b73ffffffffffffffffffffffffffffffffffffffff16610c80610ce2565b73ffffffffffffffffffffffffffffffffffffffff1614610cd6576040517f08c379a0000000000000000000000000000000000000000000000000000000008152600401610ccd90612a52565b60405180910390fd5b610ce060006119d7565b565b6000600760009054906101000a900473ffffffffffffffffffffffffffffffffffffffff16905090565b606060018054610d1b90612d81565b80601f0160208091040260200160405190810160405280929190818152602001828054610d4790612d81565b8015610d945780601f10610d6957610100808354040283529160200191610d94565b820191906000526020600020905b815481529060010190602001808311610d7757829003601f168201915b5050505050905090565b610da6611376565b73ffffffffffffffffffffffffffffffffffffffff168273ffffffffffffffffffffffffffffffffffffffff161415610e14576040517f08c379a0000000000000000000000000000000000000000000000000000000008152600401610e0b90612932565b60405180910390fd5b8060056000610e21611376565b73ffffffffffffffffffffffffffffffffffffffff1673ffffffffffffffffffffffffffffffffffffffff16815260200190815260200160002060008473ffffffffffffffffffffffffffffffffffffffff1673ffffffffffffffffffffffffffffffffffffffff16815260200190815260200160002060006101000a81548160ff0219169083151502179055508173ffffffffffffffffffffffffffffffffffffffff16610ece611376565b73ffffffffffffffffffffffffffffffffffffffff167f17307eab39ab6107e8899845ad3d59bd9653f200f220920489ca2b5937696c3183604051610f139190612875565b60405180910390a35050565b610f30610f2a611376565b83611437565b610f6f576040517f08c379a0000000000000000000000000000000000000000000000000000000008152600401610f6690612ad2565b60405180910390fd5b610f7b84848484611a9d565b50505050565b6060610f8c8261130a565b610fcb576040517f08c379a0000000000000000000000000000000000000000000000000000000008152600401610fc290612a12565b60405180910390fd5b6000600660008481526020019081526020016000208054610feb90612d81565b80601f016020809104026020016040519081016040528092919081815260200182805461101790612d81565b80156110645780601f1061103957610100808354040283529160200191611064565b820191906000526020600020905b81548152906001019060200180831161104757829003601f168201915b505050505090506000611075611af9565b905060008151141561108b5781925050506110ce565b6000825111156110c05780826040516020016110a89291906127c8565b604051602081830303815290604052925050506110ce565b6110c984611b10565b925050505b919050565b60006110df6008611771565b60006110eb6008611787565b90506110f78482611795565b6111018184611963565b61110a816107c0565b8091505092915050565b6000600560008473ffffffffffffffffffffffffffffffffffffffff1673ffffffffffffffffffffffffffffffffffffffff16815260200190815260200160002060008373ffffffffffffffffffffffffffffffffffffffff1673ffffffffffffffffffffffffffffffffffffffff16815260200190815260200160002060009054906101000a900460ff16905092915050565b6111b0611376565b73ffffffffffffffffffffffffffffffffffffffff166111ce610ce2565b73ffffffffffffffffffffffffffffffffffffffff1614611224576040517f08c379a000000000000000000000000000000000000000000000000000000000815260040161121b90612a52565b60405180910390fd5b600073ffffffffffffffffffffffffffffffffffffffff168173ffffffffffffffffffffffffffffffffffffffff161415611294576040517f08c379a000000000000000000000000000000000000000000000000000000000815260040161128b906128d2565b60405180910390fd5b61129d816119d7565b50565b60007f01ffc9a7000000000000000000000000000000000000000000000000000000007bffffffffffffffffffffffffffffffffffffffffffffffffffffffff1916827bffffffffffffffffffffffffffffffffffffffffffffffffffffffff1916149050919050565b60008073ffffffffffffffffffffffffffffffffffffffff166002600084815260200190815260200160002060009054906101000a900473ffffffffffffffffffffffffffffffffffffffff1673ffffffffffffffffffffffffffffffffffffffff1614159050919050565b600033905090565b816004600083815260200190815260200160002060006101000a81548173ffffffffffffffffffffffffffffffffffffffff021916908373ffffffffffffffffffffffffffffffffffffffff160217905550808273ffffffffffffffffffffffffffffffffffffffff166113f183610af0565b73ffffffffffffffffffffffffffffffffffffffff167f8c5be1e5ebec7d5bd14f71427d1e84f3dd0314c0f7b2291e5b200ac8c7c3b92560405160405180910390a45050565b60006114428261130a565b611481576040517f08c379a000000000000000000000000000000000000000000000000000000000815260040161147890612952565b60405180910390fd5b600061148c83610af0565b90508073ffffffffffffffffffffffffffffffffffffffff168473ffffffffffffffffffffffffffffffffffffffff1614806114fb57508373ffffffffffffffffffffffffffffffffffffffff166114e3846105c3565b73ffffffffffffffffffffffffffffffffffffffff16145b8061150c575061150b8185611114565b5b91505092915050565b8273ffffffffffffffffffffffffffffffffffffffff1661153582610af0565b73ffffffffffffffffffffffffffffffffffffffff161461158b576040517f08c379a000000000000000000000000000000000000000000000000000000000815260040161158290612a72565b60405180910390fd5b600073ffffffffffffffffffffffffffffffffffffffff168273ffffffffffffffffffffffffffffffffffffffff1614156115fb576040517f08c379a00000000000000000000000000000000000000000000000000000000081526004016115f290612912565b60405180910390fd5b611606838383611bb7565b61161160008261137e565b6001600360008573ffffffffffffffffffffffffffffffffffffffff1673ffffffffffffffffffffffffffffffffffffffff16815260200190815260200160002060008282546116619190612c97565b925050819055506001600360008473ffffffffffffffffffffffffffffffffffffffff1673ffffffffffffffffffffffffffffffffffffffff16815260200190815260200160002060008282546116b89190612c10565b92505081905550816002600083815260200190815260200160002060006101000a81548173ffffffffffffffffffffffffffffffffffffffff021916908373ffffffffffffffffffffffffffffffffffffffff160217905550808273ffffffffffffffffffffffffffffffffffffffff168473ffffffffffffffffffffffffffffffffffffffff167fddf252ad1be2c89b69c2b068fc378daa952ba7f163c4a11628f55a4df523b3ef60405160405180910390a4505050565b6001816000016000828254019250508190555050565b600081600001549050919050565b600073ffffffffffffffffffffffffffffffffffffffff168273ffffffffffffffffffffffffffffffffffffffff161415611805576040517f08c379a00000000000000000000000000000000000000000000000000000000081526004016117fc906129f2565b60405180910390fd5b61180e8161130a565b1561184e576040517f08c379a0000000000000000000000000000000000000000000000000000000008152600401611845906128f2565b60405180910390fd5b61185a60008383611bb7565b6001600360008473ffffffffffffffffffffffffffffffffffffffff1673ffffffffffffffffffffffffffffffffffffffff16815260200190815260200160002060008282546118aa9190612c10565b92505081905550816002600083815260200190815260200160002060006101000a81548173ffffffffffffffffffffffffffffffffffffffff021916908373ffffffffffffffffffffffffffffffffffffffff160217905550808273ffffffffffffffffffffffffffffffffffffffff16600073ffffffffffffffffffffffffffffffffffffffff167fddf252ad1be2c89b69c2b068fc378daa952ba7f163c4a11628f55a4df523b3ef60405160405180910390a45050565b61196c8261130a565b6119ab576040517f08c379a00000000000000000000000000000000000000000000000000000000081526004016119a2906129d2565b60405180910390fd5b806006600084815260200190815260200160002090805190602001906119d2929190611f6a565b505050565b6000600760009054906101000a900473ffffffffffffffffffffffffffffffffffffffff16905081600760006101000a81548173ffffffffffffffffffffffffffffffffffffffff021916908373ffffffffffffffffffffffffffffffffffffffff1602179055508173ffffffffffffffffffffffffffffffffffffffff168173ffffffffffffffffffffffffffffffffffffffff167f8be0079c531659141344cd1fd0a4f28419497f9722a3daafe3b4186f6b6457e060405160405180910390a35050565b611aa8848484611515565b611ab484848484611bbc565b611af3576040517f08c379a0000000000000000000000000000000000000000000000000000000008152600401611aea906128b2565b60405180910390fd5b50505050565b606060405180602001604052806000815250905090565b6060611b1b8261130a565b611b5a576040517f08c379a0000000000000000000000000000000000000000000000000000000008152600401611b5190612a92565b60405180910390fd5b6000611b64611af9565b90506000815111611b845760405180602001604052806000815250611baf565b80611b8e84611d8b565b604051602001611b9f9291906127c8565b6040516020818303038152906040525b915050919050565b505050565b6000611bdd8473ffffffffffffffffffffffffffffffffffffffff16611f57565b15611d7e578373ffffffffffffffffffffffffffffffffffffffff1663150b7a02611c06611376565b8786866040518563ffffffff167c0100000000000000000000000000000000000000000000000000000000028152600401611c449493929190612807565b602060405180830381600087803b158015611c5e57600080fd5b505af1925050508015611c8f57506040513d601f19601f82011682018060405250810190611c8c919061236a565b60015b611d12573d8060008114611cbf576040519150601f19603f3d011682016040523d82523d6000602084013e611cc4565b606091505b50600081511415611d0a576040517f08c379a0000000000000000000000000000000000000000000000000000000008152600401611d01906128b2565b60405180910390fd5b805181602001fd5b63150b7a027c0100000000000000000000000000000000000000000000000000000000027bffffffffffffffffffffffffffffffffffffffffffffffffffffffff1916817bffffffffffffffffffffffffffffffffffffffffffffffffffffffff191614915050611d83565b600190505b949350505050565b60606000821415611dd3576040518060400160405280600181526020017f30000000000000000000000000000000000000000000000000000000000000008152509050611f52565b600082905060005b60008214611e05578080611dee90612de4565b915050600a82611dfe9190612c66565b9150611ddb565b60008167ffffffffffffffff811115611e47577f4e487b7100000000000000000000000000000000000000000000000000000000600052604160045260246000fd5b6040519080825280601f01601f191660200182016040528015611e795781602001600182028036833780820191505090505b5090505b60008514611f4b57600182611e929190612c97565b9150600a85611ea19190612e2d565b6030611ead9190612c10565b7f010000000000000000000000000000000000000000000000000000000000000002818381518110611f08577f4e487b7100000000000000000000000000000000000000000000000000000000600052603260045260246000fd5b60200101907effffffffffffffffffffffffffffffffffffffffffffffffffffffffffffff1916908160001a905350600a85611f449190612c66565b9450611e7d565b8093505050505b919050565b600080823b905060008111915050919050565b828054611f7690612d81565b90600052602060002090601f016020900481019282611f985760008555611fdf565b82601f10611fb157805160ff1916838001178555611fdf565b82800160010185558215611fdf579182015b82811115611fde578251825591602001919060010190611fc3565b5b509050611fec9190611ff0565b5090565b5b80821115612009576000816000905550600101611ff1565b5090565b600061202061201b84612b32565b612b0d565b90508281526020810184848401111561203857600080fd5b612043848285612d3f565b509392505050565b600061205e61205984612b63565b612b0d565b90508281526020810184848401111561207657600080fd5b612081848285612d3f565b509392505050565b60008135905061209881613421565b92915050565b6000813590506120ad81613438565b92915050565b6000813590506120c28161344f565b92915050565b6000815190506120d78161344f565b92915050565b600082601f8301126120ee57600080fd5b81356120fe84826020860161200d565b91505092915050565b600082601f83011261211857600080fd5b813561212884826020860161204b565b91505092915050565b60008135905061214081613466565b92915050565b60006020828403121561215857600080fd5b600061216684828501612089565b91505092915050565b6000806040838503121561218257600080fd5b600061219085828601612089565b92505060206121a185828601612089565b9150509250929050565b6000806000606084860312156121c057600080fd5b60006121ce86828701612089565b93505060206121df86828701612089565b92505060406121f086828701612131565b9150509250925092565b6000806000806080858703121561221057600080fd5b600061221e87828801612089565b945050602061222f87828801612089565b935050604061224087828801612131565b925050606085013567ffffffffffffffff81111561225d57600080fd5b612269878288016120dd565b91505092959194509250565b6000806040838503121561228857600080fd5b600061229685828601612089565b92505060206122a78582860161209e565b9150509250929050565b600080604083850312156122c457600080fd5b60006122d285828601612089565b925050602083013567ffffffffffffffff8111156122ef57600080fd5b6122fb85828601612107565b9150509250929050565b6000806040838503121561231857600080fd5b600061232685828601612089565b925050602061233785828601612131565b9150509250929050565b60006020828403121561235357600080fd5b6000612361848285016120b3565b91505092915050565b60006020828403121561237c57600080fd5b600061238a848285016120c8565b91505092915050565b6000602082840312156123a557600080fd5b600082013567ffffffffffffffff8111156123bf57600080fd5b6123cb84828501612107565b91505092915050565b6000602082840312156123e657600080fd5b60006123f484828501612131565b91505092915050565b600061240983836127aa565b60208301905092915050565b61241e81612ccb565b82525050565b600061242f82612ba4565b6124398185612bd2565b935061244483612b94565b8060005b8381101561247557815161245c88826123fd565b975061246783612bc5565b925050600181019050612448565b5085935050505092915050565b61248b81612cdd565b82525050565b600061249c82612baf565b6124a68185612be3565b93506124b6818560208601612d4e565b6124bf81612f1a565b840191505092915050565b60006124d582612bba565b6124df8185612bf4565b93506124ef818560208601612d4e565b6124f881612f1a565b840191505092915050565b600061250e82612bba565b6125188185612c05565b9350612528818560208601612d4e565b80840191505092915050565b6000612541603283612bf4565b915061254c82612f2b565b604082019050919050565b6000612564602683612bf4565b915061256f82612f7a565b604082019050919050565b6000612587601c83612bf4565b915061259282612fc9565b602082019050919050565b60006125aa602483612bf4565b91506125b582612ff2565b604082019050919050565b60006125cd601983612bf4565b91506125d882613041565b602082019050919050565b60006125f0602c83612bf4565b91506125fb8261306a565b604082019050919050565b6000612613603883612bf4565b915061261e826130b9565b604082019050919050565b6000612636602a83612bf4565b915061264182613108565b604082019050919050565b6000612659602983612bf4565b915061266482613157565b604082019050919050565b600061267c602e83612bf4565b9150612687826131a6565b604082019050919050565b600061269f602083612bf4565b91506126aa826131f5565b602082019050919050565b60006126c2603183612bf4565b91506126cd8261321e565b604082019050919050565b60006126e5602c83612bf4565b91506126f08261326d565b604082019050919050565b6000612708602083612bf4565b9150612713826132bc565b602082019050919050565b600061272b602983612bf4565b9150612736826132e5565b604082019050919050565b600061274e602f83612bf4565b915061275982613334565b604082019050919050565b6000612771602183612bf4565b915061277c82613383565b604082019050919050565b6000612794603183612bf4565b915061279f826133d2565b604082019050919050565b6127b381612d35565b82525050565b6127c281612d35565b82525050565b60006127d48285612503565b91506127e08284612503565b91508190509392505050565b60006020820190506128016000830184612415565b92915050565b600060808201905061281c6000830187612415565b6128296020830186612415565b61283660408301856127b9565b81810360608301526128488184612491565b905095945050505050565b6000602082019050818103600083015261286d8184612424565b905092915050565b600060208201905061288a6000830184612482565b92915050565b600060208201905081810360008301526128aa81846124ca565b905092915050565b600060208201905081810360008301526128cb81612534565b9050919050565b600060208201905081810360008301526128eb81612557565b9050919050565b6000602082019050818103600083015261290b8161257a565b9050919050565b6000602082019050818103600083015261292b8161259d565b9050919050565b6000602082019050818103600083015261294b816125c0565b9050919050565b6000602082019050818103600083015261296b816125e3565b9050919050565b6000602082019050818103600083015261298b81612606565b9050919050565b600060208201905081810360008301526129ab81612629565b9050919050565b600060208201905081810360008301526129cb8161264c565b9050919050565b600060208201905081810360008301526129eb8161266f565b9050919050565b60006020820190508181036000830152612a0b81612692565b9050919050565b60006020820190508181036000830152612a2b816126b5565b9050919050565b60006020820190508181036000830152612a4b816126d8565b9050919050565b60006020820190508181036000830152612a6b816126fb565b9050919050565b60006020820190508181036000830152612a8b8161271e565b9050919050565b60006020820190508181036000830152612aab81612741565b9050919050565b60006020820190508181036000830152612acb81612764565b9050919050565b60006020820190508181036000830152612aeb81612787565b9050919050565b6000602082019050612b0760008301846127b9565b92915050565b6000612b17612b28565b9050612b238282612db3565b919050565b6000604051905090565b600067ffffffffffffffff821115612b4d57612b4c612eeb565b5b612b5682612f1a565b9050602081019050919050565b600067ffffffffffffffff821115612b7e57612b7d612eeb565b5b612b8782612f1a565b9050602081019050919050565b6000819050602082019050919050565b600081519050919050565b600081519050919050565b600081519050919050565b6000602082019050919050565b600082825260208201905092915050565b600082825260208201905092915050565b600082825260208201905092915050565b600081905092915050565b6000612c1b82612d35565b9150612c2683612d35565b9250827fffffffffffffffffffffffffffffffffffffffffffffffffffffffffffffffff03821115612c5b57612c5a612e5e565b5b828201905092915050565b6000612c7182612d35565b9150612c7c83612d35565b925082612c8c57612c8b612e8d565b5b828204905092915050565b6000612ca282612d35565b9150612cad83612d35565b925082821015612cc057612cbf612e5e565b5b828203905092915050565b6000612cd682612d15565b9050919050565b60008115159050919050565b60007fffffffff0000000000000000000000000000000000000000000000000000000082169050919050565b600073ffffffffffffffffffffffffffffffffffffffff82169050919050565b6000819050919050565b82818337600083830152505050565b60005b83811015612d6c578082015181840152602081019050612d51565b83811115612d7b576000848401525b50505050565b60006002820490506001821680612d9957607f821691505b60208210811415612dad57612dac612ebc565b5b50919050565b612dbc82612f1a565b810181811067ffffffffffffffff82111715612ddb57612dda612eeb565b5b80604052505050565b6000612def82612d35565b91507fffffffffffffffffffffffffffffffffffffffffffffffffffffffffffffffff821415612e2257612e21612e5e565b5b600182019050919050565b6000612e3882612d35565b9150612e4383612d35565b925082612e5357612e52612e8d565b5b828206905092915050565b7f4e487b7100000000000000000000000000000000000000000000000000000000600052601160045260246000fd5b7f4e487b7100000000000000000000000000000000000000000000000000000000600052601260045260246000fd5b7f4e487b7100000000000000000000000000000000000000000000000000000000600052602260045260246000fd5b7f4e487b7100000000000000000000000000000000000000000000000000000000600052604160045260246000fd5b6000601f19601f8301169050919050565b7f4552433732313a207472616e7366657220746f206e6f6e20455243373231526560008201527f63656976657220696d706c656d656e7465720000000000000000000000000000602082015250565b7f4f776e61626c653a206e6577206f776e657220697320746865207a65726f206160008201527f6464726573730000000000000000000000000000000000000000000000000000602082015250565b7f4552433732313a20746f6b656e20616c7265616479206d696e74656400000000600082015250565b7f4552433732313a207472616e7366657220746f20746865207a65726f2061646460008201527f7265737300000000000000000000000000000000000000000000000000000000602082015250565b7f4552433732313a20617070726f766520746f2063616c6c657200000000000000600082015250565b7f4552433732313a206f70657261746f7220717565727920666f72206e6f6e657860008201527f697374656e7420746f6b656e0000000000000000000000000000000000000000602082015250565b7f4552433732313a20617070726f76652063616c6c6572206973206e6f74206f7760008201527f6e6572206e6f7220617070726f76656420666f7220616c6c0000000000000000602082015250565b7f4552433732313a2062616c616e636520717565727920666f7220746865207a6560008201527f726f206164647265737300000000000000000000000000000000000000000000602082015250565b7f4552433732313a206f776e657220717565727920666f72206e6f6e657869737460008201527f656e7420746f6b656e0000000000000000000000000000000000000000000000602082015250565b7f45524337323155524953746f726167653a2055524920736574206f66206e6f6e60008201527f6578697374656e7420746f6b656e000000000000000000000000000000000000602082015250565b7f4552433732313a206d696e7420746f20746865207a65726f2061646472657373600082015250565b7f45524337323155524953746f726167653a2055524920717565727920666f722060008201527f6e6f6e6578697374656e7420746f6b656e000000000000000000000000000000602082015250565b7f4552433732313a20617070726f76656420717565727920666f72206e6f6e657860008201527f697374656e7420746f6b656e0000000000000000000000000000000000000000602082015250565b7f4f776e61626c653a2063616c6c6572206973206e6f7420746865206f776e6572600082015250565b7f4552433732313a207472616e73666572206f6620746f6b656e2074686174206960008201527f73206e6f74206f776e0000000000000000000000000000000000000000000000602082015250565b7f4552433732314d657461646174613a2055524920717565727920666f72206e6f60008201527f6e6578697374656e7420746f6b656e0000000000000000000000000000000000602082015250565b7f4552433732313a20617070726f76616c20746f2063757272656e74206f776e6560008201527f7200000000000000000000000000000000000000000000000000000000000000602082015250565b7f4552433732313a207472616e736665722063616c6c6572206973206e6f74206f60008201527f776e6572206e6f7220617070726f766564000000000000000000000000000000602082015250565b61342a81612ccb565b811461343557600080fd5b50565b61344181612cdd565b811461344c57600080fd5b50565b61345881612ce9565b811461346357600080fd5b50565b61346f81612d35565b811461347a57600080fd5b5056fea26469706673582212209ba809eed2d6eee60846c215bd266965e18570692f504a41caad4df6d82907f764736f6c63430008040033",
  "immutableReferences": {},
  "source": "// SPDX-License-Identifier: MIT\r\npragma solidity ^0.8.4;\r\n\r\nimport \"@openzeppelin/contracts/utils/Counters.sol\";\r\nimport \"@openzeppelin/contracts/token/ERC721/extensions/ERC721URIStorage.sol\";\r\nimport \"@openzeppelin/contracts/access/Ownable.sol\";\r\n\r\n\r\ncontract Web3NFT is ERC721URIStorage, Ownable {\r\n    using Counters for Counters.Counter;\r\n    Counters.Counter private _tokenIds;\r\n    \r\n    mapping(address => uint256[]) private balance;\r\n\r\n    constructor() ERC721(\"Web3 TTT Token\", \"WEB3T\") {}\r\n\r\n\r\n    // update the your balance\r\n    function updateMyNFTs(uint256 tokenId) public {\r\n        balance[msg.sender].push(tokenId);\r\n    }\r\n\r\n    // return all NFTs that you minted\r\n    function getMyNFTs() public view returns (uint256[] memory) {\r\n        return balance[msg.sender];\r\n    }\r\n\r\n    // create an NFT with the given IPFS URL we created from our custom metadata file.\r\n    function createToken(string memory tokenURI) public returns (uint256) {\r\n        _tokenIds.increment();\r\n        uint256 tokenId = _tokenIds.current();\r\n\r\n        _mint(msg.sender, tokenId);\r\n        _setTokenURI(tokenId, tokenURI);\r\n        updateMyNFTs(tokenId);\r\n        \r\n\r\n        return tokenId;\r\n    }\r\n\r\n    // mints a token to your friend's (recipients) address\r\n    function mintTokenToAddress(address friend, string memory tokenURI) \r\n    public\r\n    returns (uint256) {\r\n\r\n      // increment the token counter\r\n      _tokenIds.increment();\r\n      uint256 newItemId = _tokenIds.current();\r\n      \r\n      _mint(friend, newItemId);\r\n      _setTokenURI(newItemId, tokenURI);\r\n      updateMyNFTs(newItemId);\r\n\r\n      return newItemId;\r\n  }\r\n\r\n  function getTokensOfOwner(address _owner) external view returns(uint256[] memory) {\r\n    uint256 tokenCount = balanceOf(_owner);\r\n\r\n    if (tokenCount == 0) {\r\n        // Return an empty array\r\n        return new uint256[](0);\r\n    } else {\r\n        uint256[] memory result = new uint256[](tokenCount);\r\n        uint256 totalItemCount = _tokenIds.current();\r\n        uint256 resultIndex = 0;\r\n\r\n        // We count on the fact that all videos have IDs starting at 1 and increasing\r\n        // sequentially up to the totItemCount count.\r\n        for (uint i = 1; i <= totalItemCount; i++) {\r\n            if (ownerOf(i) == _owner) {\r\n                result[resultIndex] = i;\r\n                resultIndex++;\r\n            }\r\n        }\r\n\r\n        return result;\r\n    }\r\n}\r\n\r\n\r\n    \r\n    \r\n}",
  "sourcePath": "C:/Users/straw/OneDrive/Desktop/rose/git repo/web3-ttt-ecosystem-contracts/contracts/Web3NFT.sol",
  "compiler": {
    "name": "solc",
    "version": "0.8.4+commit.c7e474f2.Emscripten.clang"
  },
  "schemaVersion": "3.4.1",
  "updatedAt": "2021-07-27T00:43:50.568Z",
  "networkType": "ethereum",
  "devdoc": {
    "kind": "dev",
    "methods": {
      "approve(address,uint256)": {
        "details": "See {IERC721-approve}."
      },
      "balanceOf(address)": {
        "details": "See {IERC721-balanceOf}."
      },
      "getApproved(uint256)": {
        "details": "See {IERC721-getApproved}."
      },
      "isApprovedForAll(address,address)": {
        "details": "See {IERC721-isApprovedForAll}."
      },
      "name()": {
        "details": "See {IERC721Metadata-name}."
      },
      "owner()": {
        "details": "Returns the address of the current owner."
      },
      "ownerOf(uint256)": {
        "details": "See {IERC721-ownerOf}."
      },
      "renounceOwnership()": {
        "details": "Leaves the contract without owner. It will not be possible to call `onlyOwner` functions anymore. Can only be called by the current owner. NOTE: Renouncing ownership will leave the contract without an owner, thereby removing any functionality that is only available to the owner."
      },
      "safeTransferFrom(address,address,uint256)": {
        "details": "See {IERC721-safeTransferFrom}."
      },
      "safeTransferFrom(address,address,uint256,bytes)": {
        "details": "See {IERC721-safeTransferFrom}."
      },
      "setApprovalForAll(address,bool)": {
        "details": "See {IERC721-setApprovalForAll}."
      },
      "supportsInterface(bytes4)": {
        "details": "See {IERC165-supportsInterface}."
      },
      "symbol()": {
        "details": "See {IERC721Metadata-symbol}."
      },
      "tokenURI(uint256)": {
        "details": "See {IERC721Metadata-tokenURI}."
      },
      "transferFrom(address,address,uint256)": {
        "details": "See {IERC721-transferFrom}."
      },
      "transferOwnership(address)": {
        "details": "Transfers ownership of the contract to a new account (`newOwner`). Can only be called by the current owner."
      }
    },
    "version": 1
  },
  "userdoc": {
    "kind": "user",
    "methods": {},
    "version": 1
  }
}