{
    "contractName": "Web3NFT",
    "abi": [
        {
            "inputs": [],
            "stateMutability": "nonpayable",
            "type": "constructor"
        },
        {
            "anonymous": false,
            "inputs": [
                {
                    "indexed": true,
                    "internalType": "address",
                    "name": "owner",
                    "type": "address"
                },
                {
                    "indexed": true,
                    "internalType": "address",
                    "name": "approved",
                    "type": "address"
                },
                {
                    "indexed": true,
                    "internalType": "uint256",
                    "name": "tokenId",
                    "type": "uint256"
                }
            ],
            "name": "Approval",
            "type": "event"
        },
        {
            "anonymous": false,
            "inputs": [
                {
                    "indexed": true,
                    "internalType": "address",
                    "name": "owner",
                    "type": "address"
                },
                {
                    "indexed": true,
                    "internalType": "address",
                    "name": "operator",
                    "type": "address"
                },
                {
                    "indexed": false,
                    "internalType": "bool",
                    "name": "approved",
                    "type": "bool"
                }
            ],
            "name": "ApprovalForAll",
            "type": "event"
        },
        {
            "anonymous": false,
            "inputs": [
                {
                    "indexed": true,
                    "internalType": "address",
                    "name": "previousOwner",
                    "type": "address"
                },
                {
                    "indexed": true,
                    "internalType": "address",
                    "name": "newOwner",
                    "type": "address"
                }
            ],
            "name": "OwnershipTransferred",
            "type": "event"
        },
        {
            "anonymous": false,
            "inputs": [
                {
                    "indexed": true,
                    "internalType": "address",
                    "name": "from",
                    "type": "address"
                },
                {
                    "indexed": true,
                    "internalType": "address",
                    "name": "to",
                    "type": "address"
                },
                {
                    "indexed": true,
                    "internalType": "uint256",
                    "name": "tokenId",
                    "type": "uint256"
                }
            ],
            "name": "Transfer",
            "type": "event"
        },
        {
            "inputs": [
                {
                    "internalType": "address",
                    "name": "to",
                    "type": "address"
                },
                {
                    "internalType": "uint256",
                    "name": "tokenId",
                    "type": "uint256"
                }
            ],
            "name": "approve",
            "outputs": [],
            "stateMutability": "nonpayable",
            "type": "function"
        },
        {
            "inputs": [
                {
                    "internalType": "address",
                    "name": "owner",
                    "type": "address"
                }
            ],
            "name": "balanceOf",
            "outputs": [
                {
                    "internalType": "uint256",
                    "name": "",
                    "type": "uint256"
                }
            ],
            "stateMutability": "view",
            "type": "function"
        },
        {
            "inputs": [
                {
                    "internalType": "uint256",
                    "name": "tokenId",
                    "type": "uint256"
                }
            ],
            "name": "getApproved",
            "outputs": [
                {
                    "internalType": "address",
                    "name": "",
                    "type": "address"
                }
            ],
            "stateMutability": "view",
            "type": "function"
        },
        {
            "inputs": [
                {
                    "internalType": "address",
                    "name": "owner",
                    "type": "address"
                },
                {
                    "internalType": "address",
                    "name": "operator",
                    "type": "address"
                }
            ],
            "name": "isApprovedForAll",
            "outputs": [
                {
                    "internalType": "bool",
                    "name": "",
                    "type": "bool"
                }
            ],
            "stateMutability": "view",
            "type": "function"
        },
        {
            "inputs": [],
            "name": "name",
            "outputs": [
                {
                    "internalType": "string",
                    "name": "",
                    "type": "string"
                }
            ],
            "stateMutability": "view",
            "type": "function"
        },
        {
            "inputs": [],
            "name": "owner",
            "outputs": [
                {
                    "internalType": "address",
                    "name": "",
                    "type": "address"
                }
            ],
            "stateMutability": "view",
            "type": "function"
        },
        {
            "inputs": [
                {
                    "internalType": "uint256",
                    "name": "tokenId",
                    "type": "uint256"
                }
            ],
            "name": "ownerOf",
            "outputs": [
                {
                    "internalType": "address",
                    "name": "",
                    "type": "address"
                }
            ],
            "stateMutability": "view",
            "type": "function"
        },
        {
            "inputs": [],
            "name": "renounceOwnership",
            "outputs": [],
            "stateMutability": "nonpayable",
            "type": "function"
        },
        {
            "inputs": [
                {
                    "internalType": "address",
                    "name": "from",
                    "type": "address"
                },
                {
                    "internalType": "address",
                    "name": "to",
                    "type": "address"
                },
                {
                    "internalType": "uint256",
                    "name": "tokenId",
                    "type": "uint256"
                }
            ],
            "name": "safeTransferFrom",
            "outputs": [],
            "stateMutability": "nonpayable",
            "type": "function"
        },
        {
            "inputs": [
                {
                    "internalType": "address",
                    "name": "from",
                    "type": "address"
                },
                {
                    "internalType": "address",
                    "name": "to",
                    "type": "address"
                },
                {
                    "internalType": "uint256",
                    "name": "tokenId",
                    "type": "uint256"
                },
                {
                    "internalType": "bytes",
                    "name": "_data",
                    "type": "bytes"
                }
            ],
            "name": "safeTransferFrom",
            "outputs": [],
            "stateMutability": "nonpayable",
            "type": "function"
        },
        {
            "inputs": [
                {
                    "internalType": "address",
                    "name": "operator",
                    "type": "address"
                },
                {
                    "internalType": "bool",
                    "name": "approved",
                    "type": "bool"
                }
            ],
            "name": "setApprovalForAll",
            "outputs": [],
            "stateMutability": "nonpayable",
            "type": "function"
        },
        {
            "inputs": [
                {
                    "internalType": "bytes4",
                    "name": "interfaceId",
                    "type": "bytes4"
                }
            ],
            "name": "supportsInterface",
            "outputs": [
                {
                    "internalType": "bool",
                    "name": "",
                    "type": "bool"
                }
            ],
            "stateMutability": "view",
            "type": "function"
        },
        {
            "inputs": [],
            "name": "symbol",
            "outputs": [
                {
                    "internalType": "string",
                    "name": "",
                    "type": "string"
                }
            ],
            "stateMutability": "view",
            "type": "function"
        },
        {
            "inputs": [
                {
                    "internalType": "uint256",
                    "name": "tokenId",
                    "type": "uint256"
                }
            ],
            "name": "tokenURI",
            "outputs": [
                {
                    "internalType": "string",
                    "name": "",
                    "type": "string"
                }
            ],
            "stateMutability": "view",
            "type": "function"
        },
        {
            "inputs": [
                {
                    "internalType": "address",
                    "name": "from",
                    "type": "address"
                },
                {
                    "internalType": "address",
                    "name": "to",
                    "type": "address"
                },
                {
                    "internalType": "uint256",
                    "name": "tokenId",
                    "type": "uint256"
                }
            ],
            "name": "transferFrom",
            "outputs": [],
            "stateMutability": "nonpayable",
            "type": "function"
        },
        {
            "inputs": [
                {
                    "internalType": "address",
                    "name": "newOwner",
                    "type": "address"
                }
            ],
            "name": "transferOwnership",
            "outputs": [],
            "stateMutability": "nonpayable",
            "type": "function"
        },
        {
            "inputs": [
                {
                    "internalType": "string",
                    "name": "tokenURI",
                    "type": "string"
                }
            ],
            "name": "createToken",
            "outputs": [
                {
                    "internalType": "uint256",
                    "name": "",
                    "type": "uint256"
                }
            ],
            "stateMutability": "nonpayable",
            "type": "function"
        },
        {
            "inputs": [
                {
                    "internalType": "uint256",
                    "name": "tokenId",
                    "type": "uint256"
                }
            ],
            "name": "updateMyNFTs",
            "outputs": [],
            "stateMutability": "nonpayable",
            "type": "function"
        },
        {
            "inputs": [],
            "name": "getMyNFTs",
            "outputs": [
                {
                    "internalType": "uint256[]",
                    "name": "",
                    "type": "uint256[]"
                }
            ],
            "stateMutability": "view",
            "type": "function"
        }
    ],
    "bytecode": "0x60806040523480156200001157600080fd5b506040518060400160405280600e81526020017f576562332054545420546f6b656e0000000000000000000000000000000000008152506040518060400160405280600581526020017f5745423354000000000000000000000000000000000000000000000000000000815250816000908051906020019062000096929190620001b8565b508060019080519060200190620000af929190620001b8565b505050620000e4620000cf620000ea640100000000026401000000009004565b620000f2640100000000026401000000009004565b620002cd565b600033905090565b6000600760009054906101000a900473ffffffffffffffffffffffffffffffffffffffff16905081600760006101000a81548173ffffffffffffffffffffffffffffffffffffffff021916908373ffffffffffffffffffffffffffffffffffffffff1602179055508173ffffffffffffffffffffffffffffffffffffffff168173ffffffffffffffffffffffffffffffffffffffff167f8be0079c531659141344cd1fd0a4f28419497f9722a3daafe3b4186f6b6457e060405160405180910390a35050565b828054620001c69062000268565b90600052602060002090601f016020900481019282620001ea576000855562000236565b82601f106200020557805160ff191683800117855562000236565b8280016001018555821562000236579182015b828111156200023557825182559160200191906001019062000218565b5b50905062000245919062000249565b5090565b5b80821115620002645760008160009055506001016200024a565b5090565b600060028204905060018216806200028157607f821691505b602082108114156200029857620002976200029e565b5b50919050565b7f4e487b7100000000000000000000000000000000000000000000000000000000600052602260045260246000fd5b6131d680620002dd6000396000f3fe608060405234801561001057600080fd5b506004361061013e576000357c0100000000000000000000000000000000000000000000000000000000900480636352211e116100ca578063a22cb4651161008e578063a22cb46514610325578063b88d4fde14610341578063c87b56dd1461035d578063e985e9c51461038d578063f2fde38b146103bd5761013e565b80636352211e1461027f57806370a08231146102af578063715018a6146102df5780638da5cb5b146102e957806395d89b41146103075761013e565b806323b872dd1161011157806323b872dd146101dd57806339876a89146101f957806342842e0e1461021557806345576f9414610231578063629cb2e4146102615761013e565b806301ffc9a71461014357806306fdde0314610173578063081812fc14610191578063095ea7b3146101c1575b600080fd5b61015d60048036038101906101589190612064565b6103d9565b60405161016a9190612598565b60405180910390f35b61017b6104bb565b60405161018891906125b3565b60405180910390f35b6101ab60048036038101906101a691906120f7565b61054d565b6040516101b8919061250f565b60405180910390f35b6101db60048036038101906101d69190612028565b6105d2565b005b6101f760048036038101906101f29190611f22565b6106ea565b005b610213600480360381019061020e91906120f7565b61074a565b005b61022f600480360381019061022a9190611f22565b6107b3565b005b61024b600480360381019061024691906120b6565b6107d3565b6040516102589190612815565b60405180910390f35b610269610813565b6040516102769190612576565b60405180910390f35b610299600480360381019061029491906120f7565b6108a8565b6040516102a6919061250f565b60405180910390f35b6102c960048036038101906102c49190611ebd565b61095a565b6040516102d69190612815565b60405180910390f35b6102e7610a12565b005b6102f1610a9a565b6040516102fe919061250f565b60405180910390f35b61030f610ac4565b60405161031c91906125b3565b60405180910390f35b61033f600480360381019061033a9190611fec565b610b56565b005b61035b60048036038101906103569190611f71565b610cd7565b005b610377600480360381019061037291906120f7565b610d39565b60405161038491906125b3565b60405180910390f35b6103a760048036038101906103a29190611ee6565b610e8b565b6040516103b49190612598565b60405180910390f35b6103d760048036038101906103d29190611ebd565b610f1f565b005b60007f80ac58cd000000000000000000000000000000000000000000000000000000007bffffffffffffffffffffffffffffffffffffffffffffffffffffffff1916827bffffffffffffffffffffffffffffffffffffffffffffffffffffffff191614806104a457507f5b5e139f000000000000000000000000000000000000000000000000000000007bffffffffffffffffffffffffffffffffffffffffffffffffffffffff1916827bffffffffffffffffffffffffffffffffffffffffffffffffffffffff1916145b806104b457506104b382611017565b5b9050919050565b6060600080546104ca90612aa4565b80601f01602080910402602001604051908101604052809291908181526020018280546104f690612aa4565b80156105435780601f1061051857610100808354040283529160200191610543565b820191906000526020600020905b81548152906001019060200180831161052657829003601f168201915b5050505050905090565b600061055882611081565b610597576040517f08c379a000000000000000000000000000000000000000000000000000000000815260040161058e90612755565b60405180910390fd5b6004600083815260200190815260200160002060009054906101000a900473ffffffffffffffffffffffffffffffffffffffff169050919050565b60006105dd826108a8565b90508073ffffffffffffffffffffffffffffffffffffffff168373ffffffffffffffffffffffffffffffffffffffff16141561064e576040517f08c379a0000000000000000000000000000000000000000000000000000000008152600401610645906127d5565b60405180910390fd5b8073ffffffffffffffffffffffffffffffffffffffff1661066d6110ed565b73ffffffffffffffffffffffffffffffffffffffff16148061069c575061069b816106966110ed565b610e8b565b5b6106db576040517f08c379a00000000000000000000000000000000000000000000000000000000081526004016106d290612695565b60405180910390fd5b6106e583836110f5565b505050565b6106fb6106f56110ed565b826111ae565b61073a576040517f08c379a0000000000000000000000000000000000000000000000000000000008152600401610731906127f5565b60405180910390fd5b61074583838361128c565b505050565b600960003373ffffffffffffffffffffffffffffffffffffffff1673ffffffffffffffffffffffffffffffffffffffff16815260200190815260200160002081908060018154018082558091505060019003906000526020600020016000909190919091505550565b6107ce83838360405180602001604052806000815250610cd7565b505050565b60006107df60086114e8565b60006107eb60086114fe565b90506107f7338261150c565b61080181846116da565b61080a8161074a565b80915050919050565b6060600960003373ffffffffffffffffffffffffffffffffffffffff1673ffffffffffffffffffffffffffffffffffffffff16815260200190815260200160002080548060200260200160405190810160405280929190818152602001828054801561089e57602002820191906000526020600020905b81548152602001906001019080831161088a575b5050505050905090565b6000806002600084815260200190815260200160002060009054906101000a900473ffffffffffffffffffffffffffffffffffffffff169050600073ffffffffffffffffffffffffffffffffffffffff168173ffffffffffffffffffffffffffffffffffffffff161415610951576040517f08c379a0000000000000000000000000000000000000000000000000000000008152600401610948906126d5565b60405180910390fd5b80915050919050565b60008073ffffffffffffffffffffffffffffffffffffffff168273ffffffffffffffffffffffffffffffffffffffff1614156109cb576040517f08c379a00000000000000000000000000000000000000000000000000000000081526004016109c2906126b5565b60405180910390fd5b600360008373ffffffffffffffffffffffffffffffffffffffff1673ffffffffffffffffffffffffffffffffffffffff168152602001908152602001600020549050919050565b610a1a6110ed565b73ffffffffffffffffffffffffffffffffffffffff16610a38610a9a565b73ffffffffffffffffffffffffffffffffffffffff1614610a8e576040517f08c379a0000000000000000000000000000000000000000000000000000000008152600401610a8590612775565b60405180910390fd5b610a98600061174e565b565b6000600760009054906101000a900473ffffffffffffffffffffffffffffffffffffffff16905090565b606060018054610ad390612aa4565b80601f0160208091040260200160405190810160405280929190818152602001828054610aff90612aa4565b8015610b4c5780601f10610b2157610100808354040283529160200191610b4c565b820191906000526020600020905b815481529060010190602001808311610b2f57829003601f168201915b5050505050905090565b610b5e6110ed565b73ffffffffffffffffffffffffffffffffffffffff168273ffffffffffffffffffffffffffffffffffffffff161415610bcc576040517f08c379a0000000000000000000000000000000000000000000000000000000008152600401610bc390612655565b60405180910390fd5b8060056000610bd96110ed565b73ffffffffffffffffffffffffffffffffffffffff1673ffffffffffffffffffffffffffffffffffffffff16815260200190815260200160002060008473ffffffffffffffffffffffffffffffffffffffff1673ffffffffffffffffffffffffffffffffffffffff16815260200190815260200160002060006101000a81548160ff0219169083151502179055508173ffffffffffffffffffffffffffffffffffffffff16610c866110ed565b73ffffffffffffffffffffffffffffffffffffffff167f17307eab39ab6107e8899845ad3d59bd9653f200f220920489ca2b5937696c3183604051610ccb9190612598565b60405180910390a35050565b610ce8610ce26110ed565b836111ae565b610d27576040517f08c379a0000000000000000000000000000000000000000000000000000000008152600401610d1e906127f5565b60405180910390fd5b610d3384848484611814565b50505050565b6060610d4482611081565b610d83576040517f08c379a0000000000000000000000000000000000000000000000000000000008152600401610d7a90612735565b60405180910390fd5b6000600660008481526020019081526020016000208054610da390612aa4565b80601f0160208091040260200160405190810160405280929190818152602001828054610dcf90612aa4565b8015610e1c5780601f10610df157610100808354040283529160200191610e1c565b820191906000526020600020905b815481529060010190602001808311610dff57829003601f168201915b505050505090506000610e2d611870565b9050600081511415610e43578192505050610e86565b600082511115610e78578082604051602001610e609291906124eb565b60405160208183030381529060405292505050610e86565b610e8184611887565b925050505b919050565b6000600560008473ffffffffffffffffffffffffffffffffffffffff1673ffffffffffffffffffffffffffffffffffffffff16815260200190815260200160002060008373ffffffffffffffffffffffffffffffffffffffff1673ffffffffffffffffffffffffffffffffffffffff16815260200190815260200160002060009054906101000a900460ff16905092915050565b610f276110ed565b73ffffffffffffffffffffffffffffffffffffffff16610f45610a9a565b73ffffffffffffffffffffffffffffffffffffffff1614610f9b576040517f08c379a0000000000000000000000000000000000000000000000000000000008152600401610f9290612775565b60405180910390fd5b600073ffffffffffffffffffffffffffffffffffffffff168173ffffffffffffffffffffffffffffffffffffffff16141561100b576040517f08c379a0000000000000000000000000000000000000000000000000000000008152600401611002906125f5565b60405180910390fd5b6110148161174e565b50565b60007f01ffc9a7000000000000000000000000000000000000000000000000000000007bffffffffffffffffffffffffffffffffffffffffffffffffffffffff1916827bffffffffffffffffffffffffffffffffffffffffffffffffffffffff1916149050919050565b60008073ffffffffffffffffffffffffffffffffffffffff166002600084815260200190815260200160002060009054906101000a900473ffffffffffffffffffffffffffffffffffffffff1673ffffffffffffffffffffffffffffffffffffffff1614159050919050565b600033905090565b816004600083815260200190815260200160002060006101000a81548173ffffffffffffffffffffffffffffffffffffffff021916908373ffffffffffffffffffffffffffffffffffffffff160217905550808273ffffffffffffffffffffffffffffffffffffffff16611168836108a8565b73ffffffffffffffffffffffffffffffffffffffff167f8c5be1e5ebec7d5bd14f71427d1e84f3dd0314c0f7b2291e5b200ac8c7c3b92560405160405180910390a45050565b60006111b982611081565b6111f8576040517f08c379a00000000000000000000000000000000000000000000000000000000081526004016111ef90612675565b60405180910390fd5b6000611203836108a8565b90508073ffffffffffffffffffffffffffffffffffffffff168473ffffffffffffffffffffffffffffffffffffffff16148061127257508373ffffffffffffffffffffffffffffffffffffffff1661125a8461054d565b73ffffffffffffffffffffffffffffffffffffffff16145b8061128357506112828185610e8b565b5b91505092915050565b8273ffffffffffffffffffffffffffffffffffffffff166112ac826108a8565b73ffffffffffffffffffffffffffffffffffffffff1614611302576040517f08c379a00000000000000000000000000000000000000000000000000000000081526004016112f990612795565b60405180910390fd5b600073ffffffffffffffffffffffffffffffffffffffff168273ffffffffffffffffffffffffffffffffffffffff161415611372576040517f08c379a000000000000000000000000000000000000000000000000000000000815260040161136990612635565b60405180910390fd5b61137d83838361192e565b6113886000826110f5565b6001600360008573ffffffffffffffffffffffffffffffffffffffff1673ffffffffffffffffffffffffffffffffffffffff16815260200190815260200160002060008282546113d891906129ba565b925050819055506001600360008473ffffffffffffffffffffffffffffffffffffffff1673ffffffffffffffffffffffffffffffffffffffff168152602001908152602001600020600082825461142f9190612933565b92505081905550816002600083815260200190815260200160002060006101000a81548173ffffffffffffffffffffffffffffffffffffffff021916908373ffffffffffffffffffffffffffffffffffffffff160217905550808273ffffffffffffffffffffffffffffffffffffffff168473ffffffffffffffffffffffffffffffffffffffff167fddf252ad1be2c89b69c2b068fc378daa952ba7f163c4a11628f55a4df523b3ef60405160405180910390a4505050565b6001816000016000828254019250508190555050565b600081600001549050919050565b600073ffffffffffffffffffffffffffffffffffffffff168273ffffffffffffffffffffffffffffffffffffffff16141561157c576040517f08c379a000000000000000000000000000000000000000000000000000000000815260040161157390612715565b60405180910390fd5b61158581611081565b156115c5576040517f08c379a00000000000000000000000000000000000000000000000000000000081526004016115bc90612615565b60405180910390fd5b6115d16000838361192e565b6001600360008473ffffffffffffffffffffffffffffffffffffffff1673ffffffffffffffffffffffffffffffffffffffff16815260200190815260200160002060008282546116219190612933565b92505081905550816002600083815260200190815260200160002060006101000a81548173ffffffffffffffffffffffffffffffffffffffff021916908373ffffffffffffffffffffffffffffffffffffffff160217905550808273ffffffffffffffffffffffffffffffffffffffff16600073ffffffffffffffffffffffffffffffffffffffff167fddf252ad1be2c89b69c2b068fc378daa952ba7f163c4a11628f55a4df523b3ef60405160405180910390a45050565b6116e382611081565b611722576040517f08c379a0000000000000000000000000000000000000000000000000000000008152600401611719906126f5565b60405180910390fd5b80600660008481526020019081526020016000209080519060200190611749929190611ce1565b505050565b6000600760009054906101000a900473ffffffffffffffffffffffffffffffffffffffff16905081600760006101000a81548173ffffffffffffffffffffffffffffffffffffffff021916908373ffffffffffffffffffffffffffffffffffffffff1602179055508173ffffffffffffffffffffffffffffffffffffffff168173ffffffffffffffffffffffffffffffffffffffff167f8be0079c531659141344cd1fd0a4f28419497f9722a3daafe3b4186f6b6457e060405160405180910390a35050565b61181f84848461128c565b61182b84848484611933565b61186a576040517f08c379a0000000000000000000000000000000000000000000000000000000008152600401611861906125d5565b60405180910390fd5b50505050565b606060405180602001604052806000815250905090565b606061189282611081565b6118d1576040517f08c379a00000000000000000000000000000000000000000000000000000000081526004016118c8906127b5565b60405180910390fd5b60006118db611870565b905060008151116118fb5760405180602001604052806000815250611926565b8061190584611b02565b6040516020016119169291906124eb565b6040516020818303038152906040525b915050919050565b505050565b60006119548473ffffffffffffffffffffffffffffffffffffffff16611cce565b15611af5578373ffffffffffffffffffffffffffffffffffffffff1663150b7a0261197d6110ed565b8786866040518563ffffffff167c01000000000000000000000000000000000000000000000000000000000281526004016119bb949392919061252a565b602060405180830381600087803b1580156119d557600080fd5b505af1925050508015611a0657506040513d601f19601f82011682018060405250810190611a03919061208d565b60015b611a89573d8060008114611a36576040519150601f19603f3d011682016040523d82523d6000602084013e611a3b565b606091505b50600081511415611a81576040517f08c379a0000000000000000000000000000000000000000000000000000000008152600401611a78906125d5565b60405180910390fd5b805181602001fd5b63150b7a027c0100000000000000000000000000000000000000000000000000000000027bffffffffffffffffffffffffffffffffffffffffffffffffffffffff1916817bffffffffffffffffffffffffffffffffffffffffffffffffffffffff191614915050611afa565b600190505b949350505050565b60606000821415611b4a576040518060400160405280600181526020017f30000000000000000000000000000000000000000000000000000000000000008152509050611cc9565b600082905060005b60008214611b7c578080611b6590612b07565b915050600a82611b759190612989565b9150611b52565b60008167ffffffffffffffff811115611bbe577f4e487b7100000000000000000000000000000000000000000000000000000000600052604160045260246000fd5b6040519080825280601f01601f191660200182016040528015611bf05781602001600182028036833780820191505090505b5090505b60008514611cc257600182611c0991906129ba565b9150600a85611c189190612b50565b6030611c249190612933565b7f010000000000000000000000000000000000000000000000000000000000000002818381518110611c7f577f4e487b7100000000000000000000000000000000000000000000000000000000600052603260045260246000fd5b60200101907effffffffffffffffffffffffffffffffffffffffffffffffffffffffffffff1916908160001a905350600a85611cbb9190612989565b9450611bf4565b8093505050505b919050565b600080823b905060008111915050919050565b828054611ced90612aa4565b90600052602060002090601f016020900481019282611d0f5760008555611d56565b82601f10611d2857805160ff1916838001178555611d56565b82800160010185558215611d56579182015b82811115611d55578251825591602001919060010190611d3a565b5b509050611d639190611d67565b5090565b5b80821115611d80576000816000905550600101611d68565b5090565b6000611d97611d9284612855565b612830565b905082815260208101848484011115611daf57600080fd5b611dba848285612a62565b509392505050565b6000611dd5611dd084612886565b612830565b905082815260208101848484011115611ded57600080fd5b611df8848285612a62565b509392505050565b600081359050611e0f81613144565b92915050565b600081359050611e248161315b565b92915050565b600081359050611e3981613172565b92915050565b600081519050611e4e81613172565b92915050565b600082601f830112611e6557600080fd5b8135611e75848260208601611d84565b91505092915050565b600082601f830112611e8f57600080fd5b8135611e9f848260208601611dc2565b91505092915050565b600081359050611eb781613189565b92915050565b600060208284031215611ecf57600080fd5b6000611edd84828501611e00565b91505092915050565b60008060408385031215611ef957600080fd5b6000611f0785828601611e00565b9250506020611f1885828601611e00565b9150509250929050565b600080600060608486031215611f3757600080fd5b6000611f4586828701611e00565b9350506020611f5686828701611e00565b9250506040611f6786828701611ea8565b9150509250925092565b60008060008060808587031215611f8757600080fd5b6000611f9587828801611e00565b9450506020611fa687828801611e00565b9350506040611fb787828801611ea8565b925050606085013567ffffffffffffffff811115611fd457600080fd5b611fe087828801611e54565b91505092959194509250565b60008060408385031215611fff57600080fd5b600061200d85828601611e00565b925050602061201e85828601611e15565b9150509250929050565b6000806040838503121561203b57600080fd5b600061204985828601611e00565b925050602061205a85828601611ea8565b9150509250929050565b60006020828403121561207657600080fd5b600061208484828501611e2a565b91505092915050565b60006020828403121561209f57600080fd5b60006120ad84828501611e3f565b91505092915050565b6000602082840312156120c857600080fd5b600082013567ffffffffffffffff8111156120e257600080fd5b6120ee84828501611e7e565b91505092915050565b60006020828403121561210957600080fd5b600061211784828501611ea8565b91505092915050565b600061212c83836124cd565b60208301905092915050565b612141816129ee565b82525050565b6000612152826128c7565b61215c81856128f5565b9350612167836128b7565b8060005b8381101561219857815161217f8882612120565b975061218a836128e8565b92505060018101905061216b565b5085935050505092915050565b6121ae81612a00565b82525050565b60006121bf826128d2565b6121c98185612906565b93506121d9818560208601612a71565b6121e281612c3d565b840191505092915050565b60006121f8826128dd565b6122028185612917565b9350612212818560208601612a71565b61221b81612c3d565b840191505092915050565b6000612231826128dd565b61223b8185612928565b935061224b818560208601612a71565b80840191505092915050565b6000612264603283612917565b915061226f82612c4e565b604082019050919050565b6000612287602683612917565b915061229282612c9d565b604082019050919050565b60006122aa601c83612917565b91506122b582612cec565b602082019050919050565b60006122cd602483612917565b91506122d882612d15565b604082019050919050565b60006122f0601983612917565b91506122fb82612d64565b602082019050919050565b6000612313602c83612917565b915061231e82612d8d565b604082019050919050565b6000612336603883612917565b915061234182612ddc565b604082019050919050565b6000612359602a83612917565b915061236482612e2b565b604082019050919050565b600061237c602983612917565b915061238782612e7a565b604082019050919050565b600061239f602e83612917565b91506123aa82612ec9565b604082019050919050565b60006123c2602083612917565b91506123cd82612f18565b602082019050919050565b60006123e5603183612917565b91506123f082612f41565b604082019050919050565b6000612408602c83612917565b915061241382612f90565b604082019050919050565b600061242b602083612917565b915061243682612fdf565b602082019050919050565b600061244e602983612917565b915061245982613008565b604082019050919050565b6000612471602f83612917565b915061247c82613057565b604082019050919050565b6000612494602183612917565b915061249f826130a6565b604082019050919050565b60006124b7603183612917565b91506124c2826130f5565b604082019050919050565b6124d681612a58565b82525050565b6124e581612a58565b82525050565b60006124f78285612226565b91506125038284612226565b91508190509392505050565b60006020820190506125246000830184612138565b92915050565b600060808201905061253f6000830187612138565b61254c6020830186612138565b61255960408301856124dc565b818103606083015261256b81846121b4565b905095945050505050565b600060208201905081810360008301526125908184612147565b905092915050565b60006020820190506125ad60008301846121a5565b92915050565b600060208201905081810360008301526125cd81846121ed565b905092915050565b600060208201905081810360008301526125ee81612257565b9050919050565b6000602082019050818103600083015261260e8161227a565b9050919050565b6000602082019050818103600083015261262e8161229d565b9050919050565b6000602082019050818103600083015261264e816122c0565b9050919050565b6000602082019050818103600083015261266e816122e3565b9050919050565b6000602082019050818103600083015261268e81612306565b9050919050565b600060208201905081810360008301526126ae81612329565b9050919050565b600060208201905081810360008301526126ce8161234c565b9050919050565b600060208201905081810360008301526126ee8161236f565b9050919050565b6000602082019050818103600083015261270e81612392565b9050919050565b6000602082019050818103600083015261272e816123b5565b9050919050565b6000602082019050818103600083015261274e816123d8565b9050919050565b6000602082019050818103600083015261276e816123fb565b9050919050565b6000602082019050818103600083015261278e8161241e565b9050919050565b600060208201905081810360008301526127ae81612441565b9050919050565b600060208201905081810360008301526127ce81612464565b9050919050565b600060208201905081810360008301526127ee81612487565b9050919050565b6000602082019050818103600083015261280e816124aa565b9050919050565b600060208201905061282a60008301846124dc565b92915050565b600061283a61284b565b90506128468282612ad6565b919050565b6000604051905090565b600067ffffffffffffffff8211156128705761286f612c0e565b5b61287982612c3d565b9050602081019050919050565b600067ffffffffffffffff8211156128a1576128a0612c0e565b5b6128aa82612c3d565b9050602081019050919050565b6000819050602082019050919050565b600081519050919050565b600081519050919050565b600081519050919050565b6000602082019050919050565b600082825260208201905092915050565b600082825260208201905092915050565b600082825260208201905092915050565b600081905092915050565b600061293e82612a58565b915061294983612a58565b9250827fffffffffffffffffffffffffffffffffffffffffffffffffffffffffffffffff0382111561297e5761297d612b81565b5b828201905092915050565b600061299482612a58565b915061299f83612a58565b9250826129af576129ae612bb0565b5b828204905092915050565b60006129c582612a58565b91506129d083612a58565b9250828210156129e3576129e2612b81565b5b828203905092915050565b60006129f982612a38565b9050919050565b60008115159050919050565b60007fffffffff0000000000000000000000000000000000000000000000000000000082169050919050565b600073ffffffffffffffffffffffffffffffffffffffff82169050919050565b6000819050919050565b82818337600083830152505050565b60005b83811015612a8f578082015181840152602081019050612a74565b83811115612a9e576000848401525b50505050565b60006002820490506001821680612abc57607f821691505b60208210811415612ad057612acf612bdf565b5b50919050565b612adf82612c3d565b810181811067ffffffffffffffff82111715612afe57612afd612c0e565b5b80604052505050565b6000612b1282612a58565b91507fffffffffffffffffffffffffffffffffffffffffffffffffffffffffffffffff821415612b4557612b44612b81565b5b600182019050919050565b6000612b5b82612a58565b9150612b6683612a58565b925082612b7657612b75612bb0565b5b828206905092915050565b7f4e487b7100000000000000000000000000000000000000000000000000000000600052601160045260246000fd5b7f4e487b7100000000000000000000000000000000000000000000000000000000600052601260045260246000fd5b7f4e487b7100000000000000000000000000000000000000000000000000000000600052602260045260246000fd5b7f4e487b7100000000000000000000000000000000000000000000000000000000600052604160045260246000fd5b6000601f19601f8301169050919050565b7f4552433732313a207472616e7366657220746f206e6f6e20455243373231526560008201527f63656976657220696d706c656d656e7465720000000000000000000000000000602082015250565b7f4f776e61626c653a206e6577206f776e657220697320746865207a65726f206160008201527f6464726573730000000000000000000000000000000000000000000000000000602082015250565b7f4552433732313a20746f6b656e20616c7265616479206d696e74656400000000600082015250565b7f4552433732313a207472616e7366657220746f20746865207a65726f2061646460008201527f7265737300000000000000000000000000000000000000000000000000000000602082015250565b7f4552433732313a20617070726f766520746f2063616c6c657200000000000000600082015250565b7f4552433732313a206f70657261746f7220717565727920666f72206e6f6e657860008201527f697374656e7420746f6b656e0000000000000000000000000000000000000000602082015250565b7f4552433732313a20617070726f76652063616c6c6572206973206e6f74206f7760008201527f6e6572206e6f7220617070726f76656420666f7220616c6c0000000000000000602082015250565b7f4552433732313a2062616c616e636520717565727920666f7220746865207a6560008201527f726f206164647265737300000000000000000000000000000000000000000000602082015250565b7f4552433732313a206f776e657220717565727920666f72206e6f6e657869737460008201527f656e7420746f6b656e0000000000000000000000000000000000000000000000602082015250565b7f45524337323155524953746f726167653a2055524920736574206f66206e6f6e60008201527f6578697374656e7420746f6b656e000000000000000000000000000000000000602082015250565b7f4552433732313a206d696e7420746f20746865207a65726f2061646472657373600082015250565b7f45524337323155524953746f726167653a2055524920717565727920666f722060008201527f6e6f6e6578697374656e7420746f6b656e000000000000000000000000000000602082015250565b7f4552433732313a20617070726f76656420717565727920666f72206e6f6e657860008201527f697374656e7420746f6b656e0000000000000000000000000000000000000000602082015250565b7f4f776e61626c653a2063616c6c6572206973206e6f7420746865206f776e6572600082015250565b7f4552433732313a207472616e73666572206f6620746f6b656e2074686174206960008201527f73206e6f74206f776e0000000000000000000000000000000000000000000000602082015250565b7f4552433732314d657461646174613a2055524920717565727920666f72206e6f60008201527f6e6578697374656e7420746f6b656e0000000000000000000000000000000000602082015250565b7f4552433732313a20617070726f76616c20746f2063757272656e74206f776e6560008201527f7200000000000000000000000000000000000000000000000000000000000000602082015250565b7f4552433732313a207472616e736665722063616c6c6572206973206e6f74206f60008201527f776e6572206e6f7220617070726f766564000000000000000000000000000000602082015250565b61314d816129ee565b811461315857600080fd5b50565b61316481612a00565b811461316f57600080fd5b50565b61317b81612a0c565b811461318657600080fd5b50565b61319281612a58565b811461319d57600080fd5b5056fea2646970667358221220d78b2541152d24487474f784e29bd2d841b05ebd059a4a81fd890ba104b4b3c164736f6c63430008040033",
    "immutableReferences": {},
    "source": "// SPDX-License-Identifier: MIT\r\npragma solidity ^0.8.4;\r\n\r\nimport \"@openzeppelin/contracts/utils/Counters.sol\";\r\nimport \"@openzeppelin/contracts/token/ERC721/extensions/ERC721URIStorage.sol\";\r\nimport \"@openzeppelin/contracts/access/Ownable.sol\";\r\n\r\n\r\ncontract Web3NFT is ERC721URIStorage, Ownable {\r\n    using Counters for Counters.Counter;\r\n    Counters.Counter private _tokenIds;\r\n    \r\n    mapping(address => uint256[]) private balance;\r\n\r\n    constructor() ERC721(\"Web3 TTT Token\", \"WEB3T\") {}\r\n\r\n    // create an NFT with the given IPFS URL we created from our custom metadata file.\r\n    function createToken(string memory tokenURI) public returns (uint256) {\r\n        _tokenIds.increment();\r\n        uint256 tokenId = _tokenIds.current();\r\n\r\n        _mint(msg.sender, tokenId);\r\n        _setTokenURI(tokenId, tokenURI);\r\n        updateMyNFTs(tokenId);\r\n        \r\n\r\n        return tokenId;\r\n    }\r\n    \r\n    \r\n    // update the your balance\r\n    function updateMyNFTs(uint256 tokenId) public {\r\n        balance[msg.sender].push(tokenId);\r\n    }\r\n\r\n    // return all NFTs that you minted\r\n    function getMyNFTs() public view returns (uint256[] memory) {\r\n        return balance[msg.sender];\r\n    }\r\n    \r\n}",
    "sourcePath": "C:/Users/straw/OneDrive/Desktop/rose/git repo/web3-ttt-ecosystem-contracts/contracts/Web3NFT.sol",
    "compiler": {
        "name": "solc",
        "version": "0.8.4+commit.c7e474f2.Emscripten.clang"
    },
    "schemaVersion": "3.4.1",
    "updatedAt": "2021-07-26T19:21:19.608Z",
    "devdoc": {
        "kind": "dev",
        "methods": {
            "approve(address,uint256)": {
                "details": "See {IERC721-approve}."
            },
            "balanceOf(address)": {
                "details": "See {IERC721-balanceOf}."
            },
            "getApproved(uint256)": {
                "details": "See {IERC721-getApproved}."
            },
            "isApprovedForAll(address,address)": {
                "details": "See {IERC721-isApprovedForAll}."
            },
            "name()": {
                "details": "See {IERC721Metadata-name}."
            },
            "owner()": {
                "details": "Returns the address of the current owner."
            },
            "ownerOf(uint256)": {
                "details": "See {IERC721-ownerOf}."
            },
            "renounceOwnership()": {
                "details": "Leaves the contract without owner. It will not be possible to call `onlyOwner` functions anymore. Can only be called by the current owner. NOTE: Renouncing ownership will leave the contract without an owner, thereby removing any functionality that is only available to the owner."
            },
            "safeTransferFrom(address,address,uint256)": {
                "details": "See {IERC721-safeTransferFrom}."
            },
            "safeTransferFrom(address,address,uint256,bytes)": {
                "details": "See {IERC721-safeTransferFrom}."
            },
            "setApprovalForAll(address,bool)": {
                "details": "See {IERC721-setApprovalForAll}."
            },
            "supportsInterface(bytes4)": {
                "details": "See {IERC165-supportsInterface}."
            },
            "symbol()": {
                "details": "See {IERC721Metadata-symbol}."
            },
            "tokenURI(uint256)": {
                "details": "See {IERC721Metadata-tokenURI}."
            },
            "transferFrom(address,address,uint256)": {
                "details": "See {IERC721-transferFrom}."
            },
            "transferOwnership(address)": {
                "details": "Transfers ownership of the contract to a new account (`newOwner`). Can only be called by the current owner."
            }
        },
        "version": 1
    },
    "userdoc": {
        "kind": "user",
        "methods": {},
        "version": 1
    }
}